:020000040000FA
:0600000038EF23F01200AE
:020006001200E6
:06000800A1EF20F0120040
:02000E000000F0
:020010000000EE
:0600180063EF20F012006E
:02001E000800D8
:100020004248000000020000300000000E00000006
:10003000FC00000004000000E1470000000F000089
:10004000610000008F470000AC010000520000007A
:100050006B4700003002000024000000BF46000093
:1000600000010000AC000000AC460000E50000000C
:10007000130000008C460000540200002000000025
:10008000956A836A120080D8C2D86EDA99DA0201C2
:100090005D5109E00101BD1D01E1BE1D04E054EC0C
:1000A0001CF002015D6B02015F5132E06BEC19F054
:1000B00002015F6B62DA5FEC1FF02AEC06F005ECE0
:1000C00009F03AEC12F0EA6EEE500101E01910E18D
:1000D000EE50E1190DE1EE50E2190AE1EE50E3199C
:1000E00007E106E1BD51E41902E1BE51E5190EE058
:1000F000FBEC11F0DCC1E0F1DDC1E1F1DEC1E2F1C8
:10010000DFC1E3F1BDC1E4F1BEC1E5F185EC14F05E
:10011000A1DABDD780EC0FF0040EE126DE6ADD6ABD
:10012000DECF14F0DDCF15F0B0EC10F0155017183D
:10013000E8AE02D0173404D01650145C175015588E
:100140001BE2020EDB6A030EDB6AA2EC11F0DBCFCE
:1001500015F0D890155004E6EE0E145C000E1558FC
:1001600006E2020EDB2A030EF0E3DB2AEED7DF2ADB
:10017000010ED6E3DB2AD4D7040EE15C02E2E16A89
:10018000E552E16E85EF0FF05DEC14F0936A956A2D
:10019000926A966A836A74DFF6EC12F0E668E668A3
:1001A00029EC12F05BEC20F0000EE66EE66AFFEC44
:1001B00017F0B7EC10F0FCEC1DF0E552E552660EBE
:1001C000E66EB70EE66E12EC1EF0B7EC10F041ECE6
:1001D0001EF0E552E5527BEC10F0010EE66EE66A89
:1001E000A6EC1EF0E552E552F40EE66E010EE66E48
:1001F000BFEC1EF0E552E552E80EE66E030EE66E29
:1002000089DFE552E5526BEC19F02EEF1FF05DEC43
:1002100014F0FBEC11F00101E1EC10F001E1BE5132
:1002200006E0010EBD190BE1BE5109E108D0AC0E8C
:10023000E66E3B0EF9EC10F09FEC0FF007D0BD0E10
:10024000E66E3B0EF9EC10F0B0EC0FF00101010E80
:10025000BC6F7BEC10F0210E1AEC0FF026EF11F0C2
:1002600080EC0FF0FB0EDBCFE6FFFC0EA5EC10F0F0
:10027000FE0EDBCFE6FF65EC12F0FD0EDBCFBFF12B
:10028000FE0EDBCFC0F1FB0EDBCFC1F1FC0EDBCFEE
:10029000C2F17EEC11F009EC11F015AE02D0166837
:1002A00017684CEC12F015AE02D01668176854ECC3
:1002B00012F015AE02D0166817687AEC0EF0050E33
:1002C00069EC12F015AE02D0166817687AEC0EF0E1
:1002D000060E86EC0EF085EF0FF092EC12F015AEE4
:1002E00002D0166817687AEC0EF0020E86EC0EF05B
:1002F0007EEC11F00CEC11F015AE02D01668176808
:100300007AEC0EF0030E86EC0EF083EC11F009ECA3
:1003100011F015AE02D0166817687AEC0EF0070ED1
:1003200069EC12F015AE02D016681768E1EC11F016
:100330009DEC12F015AE02D016681768E5EC11F0CE
:10034000A0EC12F015AE02D0166817687AEC0EF029
:100350000D0E86EC0EF085EF0FF092EC12F015AE5C
:1003600002D0166817684CEC12F015AE02D0166871
:10037000176854EC12F015AE02D0166817687AECC4
:100380000EF0040E69EC12F015AE02D01668176874
:100390007AEC0EF0050E86EC0EF09DEC12F015AE28
:1003A00002D0166817687AEC0EF00A0E86EC0EF092
:1003B000A0EC12F015AE02D016681768E9EC11F047
:1003C000F70EDBCF14F0F80E09EC11F015AE02D0E9
:1003D00016681768EDEC11F0F70EDBCF14F0F80E8D
:1003E0000CEC11F015AE02D016681768F1EC11F0A4
:1003F00085EF0FF080EC0FF002015C5141E001014C
:10040000D82B000ED923020ED9AF02D0D89003D03A
:10041000D85D000ED9592BE39DEC12F015AE02D039
:10042000166817687AEC0EF0FB0EA5EC10F01FECC6
:1004300011F0A0EC12F015AE02D0166817687AEC35
:100440000EF0FB0EDBCF18F0FC0EDBCF19F0010E27
:100450001824E66EFD0EDBCFE6FF06EC15F01A6EF3
:10046000060EE15E1A500101D86BD96B09D0A90EB6
:10047000E66E3B0EE66EFB0EA5EC10F083EC0EF084
:1004800085EF0FF080EC0FF0060EE1260101010E62
:10049000BD1901E1BE510FE00B0EBD1901E1BE51C6
:1004A0000AE0060EBD1901E1BE5105E0110EBD19AD
:1004B00053E1BE5151E13EEC12F0FEEC10F0CFECF6
:1004C0000EF0040E06C0DBFF050E18EC12F015AEA0
:1004D00002D016681768EDEC11F0F5EC0EF0ABECFD
:1004E0000EF015AE02D016681768F1EC11F066EC4C
:1004F00010F00D0E79EC11F0A2EC11F009EC11F0F6
:1005000015AE02D016681768E9EC11F0A2EC11F0F4
:100510000CEC11F015AE02D016681768E5EC11F07E
:1005200066EC10F00A0E79EC11F072EC12F009ECA6
:1005300011F015AE02D016681768E1EC11F072ECFC
:1005400012F00CEC11F015AE02D0166817687AECB8
:100550000EF0090E86EC0EF0060EE15C02E2E16A96
:10056000E552E16E85EF0FF00101DA6BDB6BDC6BBE
:10057000DD6BDE6BDF6BFBEF11F00101F651F71164
:100580001EE1DA2B000EDB23140EDBAF02D0D89075
:1005900003D0DA5D000EDB5912E3DC2B000EDD2305
:1005A000DE23DF23DA6BDB6BD890DF51000A02E633
:1005B00084EC10F004E3DC6BDD6BDE6BDF6B1200B0
:1005C0000B0E0101BD1901E1BE510FE0060EBD1970
:1005D00001E1BE5106E0010EBD1901E1BE5101E08D
:1005E0001200D9EC0AF01EEF0FF0D9EC0AF001016D
:1005F0000B0EBD1901E1BE5102E01EEC0FF012001E
:1006000080EC0FF0A50EE66E3B0EEFEC0EF0FD0E4B
:10061000DBCFE6FFFE0EC5EC10F0BFC1E6FFC0C1A8
:10062000E6FF36EC1AF0E552E552FB0EDBCFE6FFB3
:10063000FC0EC5EC10F0C1C1E6FFC2C1E6FF36EC0E
:100640001AF0E552E552A20EE66E3B0EEFEC0EF00C
:1006500085EF0FF00001E8050FE1E86BCCEC10F03E
:1006600096EC0EF0120E8DEC10F0E552E552960E5F
:10067000E66E3B0EEFEC0EF0020E0001E85D12E1BB
:100680000101F82B000EF923F93508E2F8510308AF
:10069000000EF95503E2010EF86FF96B1BEC0DF03B
:1006A0000001E86B030EE85D12E10101FA2B000E78
:1006B000FB23FB3508E2FA510308000EFB5503E269
:1006C000010EFA6FFB6B1BEC0DF00001E86B040EE2
:1006D000E85D09E10101F66BF76BD9EC0AF01EEC5D
:1006E0000FF00001E86B12000101BC51020A01E1A8
:1006F000E9D0020A01E19DD0030A54E0020A01E0B8
:10070000120002015C5101E105D166EC0FF001E13C
:10071000BE5109E0010EBD190BE1BE5109E1BD0E4C
:10072000E66E3B0E03D0AC0EE66E3B0EF9EC10F01D
:1007300026EC11F00101100EFC1901E1FD5109E058
:100740008A0EE66E3B0EEFEC0EF0100E0101FC6F10
:10075000FD6BC551D51925E1C651D61901E0DAD096
:10076000110E1AEC0FF00101030EBC6FE1EC10F05A
:1007700001E1BE5109E0010EBD190BE1BE5109E1D5
:10078000790EE66E3B0E03D0680EE66E3B0EF9EC7A
:1007900010F053EC11F001E1FD5101E1BBD0BAECD6
:1007A00011F0120002015C5101E1B4D066EC0FF0CF
:1007B00001E1BE5109E0010EBD190BE1BE5109E195
:1007C000790EE66E3B0E03D0680EE66E3B0EF9EC3A
:1007D00010F053EC11F001E1FD5102E0BAEC11F020
:1007E000C951D51925E1CA51D61901E093D0D56B6D
:1007F000D66BBC6B0C0E1AEC0FF0060E0101BD1986
:1008000001E1BE5109E0010EBD190BE1BE5109E144
:100810004B0EE66E3B0E03D03A0EE66E3B0EF9EC45
:1008200010F0FAEC0EF001E1FD5174E0C0EC11F0B3
:10083000120002015C516EE066EC0FF001E1BE5166
:1008400009E0010EBD190BE1BE5109E14B0EE66E48
:100850003B0E03D03A0EE66E3B0EF9EC10F0FAECCC
:100860000EF001E1FD5102E0C0EC11F0C351D519C9
:1008700028E1C451D6194EE1CA0EE66EE66829ECAD
:1008800012F00101020EBC6FE1EC10F001E1BE516B
:1008900009E0010EBD190BE1BE5109E11D0EE66E26
:1008A0003B0E03D00C0EE66E3B0EF9EC10F063EC41
:1008B00011F00101180EFC1901E1FD512BE0C6EC0D
:1008C00011F0120002015C5125E066EC0FF001E12D
:1008D000BE5109E0010EBD190BE1BE5109E11D0E2B
:1008E000E66E3B0E03D00C0EE66E3B0EF9EC10F0FC
:1008F00063EC11F00101C751D51904E1C851D619B3
:1009000001E15EDE0101180EFC1901E1FD5102E07A
:10091000C6EC11F0120080EC0FF0D3EC10F00818C8
:1009200002E1E868091801E17BD1E868081802E1F2
:10093000E868091801E164D1120E081801E10950B4
:1009400001E14CD1110E081801E1095001E131D14A
:100950000B0E081801E1095001E116D1060E081826
:1009600001E1095001E10AD1050E081801E1095021
:1009700001E1F5D0040E081801E1095001E1E4D0CD
:10098000030E081801E1095001E1D5D0020E081844
:1009900001E1095001E1C1D0010E081801E109503F
:1009A00001E1B7D0100E081801E1095001E1A3D010
:1009B0000F0E081801E1095001E190D04D0E081802
:1009C00001E1095001E178D04C0E081801E109500D
:1009D00066E04B0E081801E1095056E04A0E08186F
:1009E00001E1095046E0490E081801E1095036E0DE
:1009F000480E081801E1095024E0470E081801E1EB
:100A0000095014E0460E081801E022D1095001E017
:100A10001FD14AEC11F0F20EE66E3A0E77EC12F0AE
:100A2000E10EE66E3A0EE66EE66A53D04AEC11F03D
:100A3000D30EE66E3A0E77EC12F0C70EE66E3A0E63
:100A400045D04AEC11F0B90EE66E3A0E77EC12F092
:100A5000AB0EE66E3A0EE66E020E3AD04AEC11F09C
:100A60009D0EE66E3A0E77EC12F0910EE66E3A0E9F
:100A70002DD04AEC11F0820EE66E3A0E7BEC12F0AD
:100A8000760EE66E3A0E22D04AEC11F0670EE66E54
:100A90003A0E7BEC12F05B0EE66E3A0E17D04AEC83
:100AA00011F04C0EE66E3A0E7BEC12F0420EE66E42
:100AB0003A0EE66E040E0CD04AEC11F0330EE66EE0
:100AC0003A0E7BEC12F0270EE66E3A0EE66E030E3F
:100AD000E66E010EE66E83EC0EF009D04AEC11F0E2
:100AE0000101D36BD46B3FEC0FF092EC0FF0C00E12
:100AF000E66EE6685BD05DEC14F05CEC12F096EC10
:100B00000EF00101D36BD46B50EC0FF092EC0FF0B0
:100B10004AD00101F66BF76B31D05DEC14F0160E84
:100B2000E66E3A0EF9EC10F046EC0BF08BEC0EF0A2
:100B300093EC10F036D05DEC14F07FEC12F0F5EC95
:100B400011F096EC10F017D05DEC14F0D4EC11F02D
:100B500046EC0BF0F5EC11F099EC10F00CD05DECDC
:100B600014F086EC12F046EC0BF0F5EC11F0ACEC66
:100B700011F0A7EC11F006EC1CF02DD0000E1AECD1
:100B80000FF007EC01F064D05DEC14F0000EE66E9F
:100B90003A0EE66E96EC12F0000EE66EE66AE66E2F
:100BA000E66A65EC12F0000EE66EE66A79EC17F084
:100BB0004DD0010E0101F66FF76B5DEC14F00101F1
:100BC000D36BD46BF40EE66E390EE66E030EE66E52
:100BD000E66A54EC15F0E552E55238D05DEC14F0BD
:100BE000090E1AEC0FF0E60EE66E390EF9EC10F075
:100BF000D80EE66E390E88EC11F0CCEC10F028D04F
:100C00003F0E1AEC0FF0836AF5EC10F02EEC1BF09F
:100C1000E552E5520101F66BF76B5DEC14F018D06C
:100C20005DEC14F0D00EE66E390EE66E050E16EC95
:100C300011F0C80EE66E390EE66E050E79EC11F075
:100C4000B80EE66E0B0EE66E9AEC1EF0E552E5521B
:100C500085EF0FF002013C0E00190EE101510CE18D
:100C60000101BD1D05E1BE1D03E1D9EC0AF002D072
:100C7000BD69BE691EEC0FF00201010E001932E1E0
:100C8000015130E10101BD1D01E1BE1D2BE0100E3F
:100C9000BD1901E1BE5105E00F0EBD190AE1BE51BB
:100CA00008E1F3EC0FF005E10101FE0EBD6FBE6936
:100CB00017D0460E0101BEAF02D0D89003D0BD5D63
:100CC000000EBE5905E3BE3507E2E6EC10F004E283
:100CD000460EBD6FBE6B04D0F66BF76BD9EC0AF015
:100CE0001EEF0FF00201010E081901E1095106E0A3
:100CF000140E085D000E095901E29FD1120E010188
:100D0000BD1901E1BE5101E189D1110EBD1901E109
:100D1000BE5101E166D1100EBD1901E1BE5101E1E4
:100D20001DD10F0EBD1901E1BE5101E1D5D04D0E0F
:100D3000BD1901E1BE5101E1CDD04C0EBD1901E15B
:100D4000BE5101E1C5D0050EBD1901E1BE5101E161
:100D50009ED0040EBD1901E1BE5101E179D0030E10
:100D6000BD1901E1BE5155E0020EBD1901E1BE51B0
:100D700031E04B0EBD1901E1BE5127E04A0EBD190D
:100D800001E1BE511CE0490EBD1901E1BE5115E063
:100D9000480EBD1901E1BE510EE0470EBD1901E13B
:100DA000BE5107E0460EBD1901E1BE5101E17FD100
:100DB0001200110EB7D14C0EB5D1120EB3D1020EE6
:100DC000BD6FBE6B010ED76FAFD1020EBD6FBE6B94
:100DD000D76BAAD1C3C114F0C4C115F0C32B000E48
:100DE000C423D890155002E6ABEC10F003E3010EDB
:100DF000C36FC46B93EC10F01AEC11F005E1C3C1A2
:100E0000AEF1C4C1AFF11200C3C1B6F1C4C1B7F1B4
:100E10001200C7C114F0C8C115F0C72B000EC823BB
:100E2000D890155002E6ABEC10F003E3010EC76F4B
:100E3000C86B96EC10F01AEC11F005E1C7C1ACF1EB
:100E4000C8C1ADF11200C7C1B4F1C8C1B5F11200FB
:100E5000C5C114F0C6C115F0C52B000EC623D8902D
:100E6000155002E6ABEC10F003E3010EC56FC66B44
:100E700099EC10F01AEC11F005E1C5C1B2F1C6C150
:100E8000B3F11200C5C1BAF1C6C1BBF11200C9C1AC
:100E900014F0CAC115F0C92B000ECA23D890155002
:100EA00002E6ABEC10F003E3010EC96FCA6BA7ECCE
:100EB00011F0A7EC11F01AEC11F005E1C9C1B0F185
:100EC000CAC1B1F11200C9C1B8F1CAC1B9F1120069
:100ED0000F0E28D1100E26D1050ED31901E1D451E1
:100EE00031E0040ED31901E1D45126E0030ED319E9
:100EF00001E1D4511AE0020ED31901E1D45111E0FD
:100F0000010ED31901E1D45108E0D35124E1D451A9
:100F100022E1E60EE66E010E0BD0E60EE66E010E45
:100F20000ED0E60EE66E010E10D0EA0EE66E010E51
:100F3000E66EEBEC10F00DD0EA0EE66E010EE66EFA
:100F40003C0E05D0EA0EE66E010EE66E010EE66E70
:100F5000E66A9CEC10F03FEC0FF041D0050ED3197F
:100F600001E1D45131E0040ED31901E1D45126E05E
:100F7000030ED31901E1D4511AE0020ED31901E195
:100F8000D45111E0010ED31901E1D45108E0D3513D
:100F900024E1D45122E1EE0EE66E010E0BD0EE0EEE
:100FA000E66E010E0ED0EE0EE66E010E10D0F20EC1
:100FB000E66E010EE66EEBEC10F00DD0F20EE66E72
:100FC000010EE66E3C0E05D0F20EE66E010EE66EE8
:100FD000010EE66EE66A9CEC10F050EC0FF092EF1A
:100FE0000FF0020ED31901E1D4510EE0010ED31916
:100FF00001E1D45107E0D3510EE1D4510CE1EBEC07
:1010000010F005D03C0E01D0010EE66EE66AC1EC90
:101010000CF0E552E552D7EC0EF08AD0F82B000E1A
:10102000F923F93508E2F8510308000EF95503E2F7
:10103000010EF86FF96B1BEF0DF0010E0A1901E1BB
:101040000B5106E0140E0A5D000E0B5901E2DCD0D4
:10105000460E0101BEAF02D0D89003D0BD5D000E98
:10106000BE590DE3BE3502E2E6EC10F008E3F0EC09
:1010700010F05AE2E6EC10F057E2460E53D04A0E5A
:10108000BEAF02D0D89003D0BD5D000EBE5911E3B3
:10109000BE3504E2BD514B08000EBE550AE3F0EC2C
:1010A00010F042E2BD514B08000EBE553DE24A0E23
:1010B00039D0050EBD1907E1BE5105E1010EBD6F26
:1010C000BE6BE66E33D0050EBEAF02D0D89003D013
:1010D000BD5D000EBE590DE2020EBEAF02D0D8902B
:1010E00003D0BD5D000EBE5904E3BD2B000EBE2330
:1010F0001BD04C0EBEAF02D0D89003D0BD5D000E09
:10110000BE5919E3BE3504E2BD514D08000EBE556F
:1011100012E3F0EC10F008E2BD514D08000EBE5590
:1011200003E24C0EBD6FBE6BBDC1E6FF2EEC12F0AC
:10113000E552E5521200120EBD1901E1BE5155E013
:10114000110EBD1901E1BE513CE0100EBD1901E1C7
:10115000BE511BE00F0EBD1901E1BE5101E01200AE
:10116000D32B000ED4233FEC0FF092EC0FF0060EC1
:101170000101D4AF02D0D89003D0D35D000ED45972
:1011800043E3F3EC0FF015E019D0D32B000ED4237A
:1011900050EC0FF092EC0FF0060E0101D4AF02D02C
:1011A000D89003D0D35D000ED4592EE3F3EC0FF0AA
:1011B00005E10101FE0EBD6FBE6915D0010E0101F2
:1011C00010D0D32B000ED423FBEC11F0030E010141
:1011D000D4AF02D0D89003D0D35D000ED45914E31D
:1011E000010EBD6FBE6B1EEF0FF0FA2B000EFB233E
:1011F000FB3508E2FA510308000EFB5503E2010E2D
:10120000FA6FFB6B1BEC0DF01200FE0E0101BD1915
:1012100002E1E868BE1901E1B7D1E868BD1902E151
:10122000E868BE1901E1C4D1490EBD1901E1BE5102
:1012300001E1BED1480EBD1901E1BE5101E1B8D1B5
:10124000470EBD1901E1BE5101E1B2D1460EBD19F3
:1012500001E1BE5101E1ACD1120EBD1901E1BE5157
:1012600001E1A6D1110EBD1901E1BE5101E150D13C
:101270000B0EBD1901E1BE5101E13FD1060EBD19B2
:1012800001E1BE5101E137D1050EBD1901E1BE51A9
:1012900001E11CD1040EBD1901E1BE5101E109D1EA
:1012A000030EBD1901E1BE5101E1F6D0020EBD19D8
:1012B00001E1BE5101E1E0D0010EBD1901E1BE51D5
:1012C00001E119D1100EBD1901E1BE5101E17DD03E
:1012D0000F0EBD1901E1BE5128E04D0EBD1901E10F
:1012E000BE5101E165D14C0EBD1901E1BE5101E1D4
:1012F0005FD14B0EBD1901E1BE5101E159D14A0E3A
:10130000BD1901E1BE5101E153D15DEC14F0C20EF3
:10131000E66E390EF9EC10F0BDC114F0BEC115F047
:10132000166A176A15AE3BD138D15CEC12F0020197
:101330005C5101E13DD1050E0101D31901E1D45108
:101340003DE0040ED31901E1D45131E0030ED3196D
:1013500001E1D45125E0020ED31901E1D45119E085
:10136000010ED31901E1D4510DE0D35101E005D1B3
:10137000D45101E002D1FBEC0FF00FEC11F0C6EC00
:101380000FF04DD0FBEC0FF039EC11F0C6EC0FF084
:101390004FD0FBEC0FF04EEC11F0C6EC0FF051D03B
:1013A00004EC10F00FEC11F0D0EC0FF0CAD004EC0C
:1013B00010F039EC11F0D0EC0FF0CDD004EC10F0BF
:1013C0004EEC11F0D0EC0FF0CBD002015C5101E1FA
:1013D000EFD0050E0101D31901E1D45146E0040E0E
:1013E000D31901E1D4513AE0030ED31901E1D451EC
:1013F0002EE0020ED31901E1D4511DE0010ED319E4
:1014000001E1D4510FE0D35101E0B7D0D45101E054
:10141000B4D00DEC10F00FEC11F0DAEC0FF0CCECD6
:1014200011F011D00DEC10F039EC11F0DAEC0FF0F6
:10143000DAEC11F008D00DEC10F04EEC11F0DAEC13
:101440000FF009EC12F0E66EE66A000E8ED016EC94
:1014500010F00FEC11F0E4EC0FF073D016EC10F07C
:1014600039EC11F0E4EC0FF076D016EC10F04EEC05
:1014700011F0E4EC0FF074D002015C5101E198D05E
:10148000160EE66E3A0EF9EC10F0020E55EC10F066
:10149000FFEC11F0000E25D002015C5101E188D073
:1014A0007FEC12F0010E55EC10F004EC12F0040E7B
:1014B00018D002015C5101E17BD0D4EC11F0050E93
:1014C00055EC10F0ACEC11F00A0E0BD002015C519F
:1014D0006FE086EC12F0040E55EC10F0A7EC11F062
:1014E0000E0EEEEC0FF0E66AFAEC01F0146E060E4A
:1014F000E15E145042D074EF03F0E0EC02F0020120
:101500005C5156E08AEC17F0E80EE66E030E38D018
:1015100002015C514DE0020E0101D31901E1D451E9
:101520001DE0010ED31901E1D4510EE0D35125E1A4
:10153000D45123E189EC0FF00FEC11F00E6A24EC8A
:101540000FF0CCEC11F00ED089EC0FF039EC11F06B
:101550000E6A24EC0FF0DAEC11F004D08DEC12F0EE
:1015600009EC12F0E66EE66A010EE66EE66AFAEC47
:1015700001F0186E060EE15E1850F40EE66E010ED4
:10158000E66E9AEC1EF006D002015C5111E04C0EA2
:101590008DEC10F0E552E552120016681768AADBD0
:1015A000070EEBEC0EF0BC0EE66E390E88EC11F077
:1015B000120070EC0FF00101E919E8AE02D0E93534
:1015C00002D01FEC10F00AE370EC0FF0ED19E8AE5A
:1015D00002D0ED3502D02DEC0FF01EE38BEC11F0B4
:1015E000E8AE02D0F33402D028EC10F017E23AEC67
:1015F00012F032EC12F0E8AE02D0F33402D031EC4B
:1016000010F00AE370EC0FF0ED19E8AE02D0ED3502
:1016100002D02DEC0FF002E2060E35D070EC0FF088
:10162000F119E8AE02D0F13502D03AEC10F00AE33D
:1016300070EC0FF0F519E8AE02D0F53502D036ECBB
:101640000FF01EE392EC11F0E8AE02D0F33402D0BA
:1016500043EC10F017E23AEC12F036EC12F0E8AE80
:1016600002D0F33402D04CEC10F00AE370EC0FF02F
:10167000F519E8AE02D0F53502D036EC0FF002E2F3
:101680000B0E01D0010EBD6FBE6B12000101D7051C
:1016900002E1B0EF0FF0D75102E19FEC0FF0120022
:1016A00080EC0FF00C0EE1263EEC12F03FEC11F056
:1016B000C1EC0FF0040E02C0DBFF050E03C0DBFF20
:1016C0003FEC11F0DBCF09F039DB060E06C0DBFF83
:1016D000070E07C0DBFFFEEC10F061DB080E06C052
:1016E000DBFF090E07C0DBFF3FEC11F058DB0A0EF1
:1016F00006C0DBFF0B0E18EC12F015AE02D0166818
:101700001768F8DA0E0E67DB70DB25DB15AE02D04A
:1017100016681768EFDA0F0E5EDBA2EC11F009EC29
:1017200011F015AE02D016681768E4DA0B0E53DB21
:10173000A2EC11F00CEC11F015AE02D0166817688F
:10174000D9DA0C0E48DB66EC10F00D0E16EC11F039
:1017500066EC10F096EC12F0080EDBCF14F0090ED8
:1017600009EC11F015AE02D016681768C3DA080E3E
:1017700032DB080EDBCF14F0090E0CEC11F015AEC5
:1017800002D016681768B6DA090E25DB72EC12F083
:1017900009EC11F015AE02D016681768EDEC11F0E7
:1017A00072EC12F00CEC11F015AE02D0166817684E
:1017B000F1EC11F0060EDBCF14F0070E09EC11F07E
:1017C00015AE02D016681768E9EC11F0060EDBCFF3
:1017D00014F0070E0CEC11F015AE02D01668176865
:1017E000E5EC11F066EC10F00D0E79EC11F066EC02
:1017F00010F00A0E79EC11F00A0EDBCF14F00B0E8C
:1018000009EC11F015AE02D016681768E1EC11F082
:101810000A0EDBCF14F00B0E0CEC11F015AE02D05B
:101820001668176867DA090E71DA0C0EE15C02E2DD
:10183000E16AE552E16E69D363DB040EE12683ECD5
:1018400011F0DBCF15F0B0EC10F0DAEC10F0EE5048
:101850001426EE501522EE501622EE50172214C018
:10186000DFFF010E15C0DBFF020E16C0DBFF030E0B
:1018700017C0DBFFFB0EDBCF07F0FC0EDBCF08F061
:10188000FD0EDBCF09F0FE0EDBCF0AF0100E0718BD
:1018900006E10E0E081803E1095001E10A503EE08E
:1018A0003C0E071805E1085003E1095001E10A5018
:1018B00028E0010E071832E1085030E109502EE10E
:1018C0000A502CE1B1EC11F0EECF14F0EECF15F090
:1018D000EECF16F0EFCF17F04EEC11F00E6A14C0F9
:1018E00006F015C007F016C008F017C009F01DEC8F
:1018F00012F014E1B1EC11F03C0EEE5E000EEE5A67
:101900000BD0DADB23EC12F009E1B1EC11F0100E90
:10191000EE5E0E0EEE5A000EEE5AEE5AB1EC11F0DB
:10192000D890030EEB50000A08E6800EEE5C510ED4
:10193000EE58010EEE58000EEE580FE3BDDB0FEC33
:1019400011F010EC12F002C0DEFF03C0DEFF04C095
:10195000DEFF05C0DDFFDD52DD52DAEC10F0DFCF37
:10196000EEFF010EDBCFEEFF020EDBCFEEFF030E2C
:10197000DBCFEEFF040EE15C02E2E16AE552E16ECC
:10198000C4D2BEDA7EEC11F0DBCF15F0166A176A0E
:1019900015AE02D0166817683AEC12F0EA6EEE50F7
:1019A00014240101DC6FEE501520DD6FEE5016207F
:1019B000DE6FEE501720DF6FD3EC10F0100E08181A
:1019C00002E10E0E091821E03C0E081801E1095051
:1019D00010E0010E081819E1095017E18DEC12F022
:1019E0001DEC12F012E13C0E0101DC5F000EDD5B2C
:1019F0000AD02ADA23EC12F008E1100E0101DC5FB4
:101A00000E0EDD5B000EDE5BDF5BD8900101DF5167
:101A1000000A01E679DB0EE30FEC11F00E6A14DA2E
:101A20006CEC21F002C0DCF103C0DDF104C0DEF19A
:101A300005C0DFF16AD25DEC14F0030E0101F81964
:101A400001E1F95150E0020EF81901E1F95127E0E6
:101A5000010EF8196CE1F9516AE1E60EE66E390EF5
:101A60006DEC12F006E1FB5104E1960EE66E3B0EC2
:101A700011D0020EFA1906E1FB5104E18A0EE66E5E
:101A80003B0E08D0030EFA1906E1FB5104E15C0E8F
:101A9000E66E3B0EA4D9000E25DA010E45D0AC0E41
:101AA000E66E390E6DEC12F006E1FB5104E12E0EEC
:101AB000E66E3B0E11D0020EFA1906E1FB5104E16D
:101AC000A00EE66E390E08D0030EFA1906E1FB519E
:101AD00004E1940EE66E390E82D9020E03DA000E8E
:101AE00008DA010E23D0830EE66E390E6DEC12F08B
:101AF00006E1FB5104E1000EE66E3B0E11D0020E32
:101B0000FA1906E1FB5104E1770EE66E390E08D0B2
:101B1000030EFA1906E1FB5104E16B0EE66E390E75
:101B20005ED9010EDFD9000EE4D9020EE2D9030E10
:101B30000101FA1901E1FB511DE0020EFA1901E160
:101B4000FB510EE0010EFA1901E1FB5101E0120018
:101B5000D80EE66E390EDCDB030EC4D9040E11D0AC
:101B60005B0EE66E390ED4DB050EBCD9030EC1D96F
:101B7000040E09D04A0EE66E390ECADB040EB2D945
:101B8000030EB7D9050E79EF0FF0A5DA0101F119AF
:101B9000E8AE02D0F13501D06DDA09E39CDAF5192F
:101BA000E8AE02D0F53501D061D901E29AD0BADBB6
:101BB000E8AE02D0F33401D066DA15E2EA0EE96E3F
:101BC000010E36EC12F0E8AE02D0F33401D064DA44
:101BD00001E287D080DAF519E8AE02D0F53501D000
:101BE00045D901E27ED07BDAF119E8AE02D0F135B9
:101BF00001D040DA09E373DAF519E8AE02D0F53521
:101C000001D034D901E26DD08DDBE8AE02D0F334DF
:101C100001D039DA13E2E60EE96E010E36EC12F06D
:101C2000E8AE02D0F33401D037DA5BE358DAF519C5
:101C3000E8AE02D0F53501D019D953E354DAE919E9
:101C4000E8AE02D0E93501D0FAD908E34CDAED1953
:101C5000E8AE02D0ED3501D000D943E35CDBE8AE5D
:101C600002D0F33401D0F4D913E2F20EE96E010E82
:101C700032EC12F0E8AE02D0F33401D0F2D931E305
:101C800032DAED19E8AE02D0ED3501D0E6D829E31D
:101C90002EDAE919E8AE02D0E93501D0D0D908E34F
:101CA00026DAED19E8AE02D0ED3501D0D6D819E329
:101CB00032DBE8AE02D0F33401D0CAD914E2EE0E22
:101CC000E96E010ECFDBE8AE02D0F33401D0C9D902
:101CD00008E30DDAED19E8AE02D0ED3501D0BDD83C
:101CE00002E2F36A02D0010EF36EF46A1200DBCF57
:101CF00015F01FD314C0E6FF15C0E6FF16C0E6FFBF
:101D000017C0E6FF120054EC15F073D3E66E010E17
:101D1000E66E1FEF11F01BDB1FDB76DB70DBADEC3B
:101D200001F0146E080EE15E14501200000EE66E13
:101D3000E66AE66EE66A06EC1CF05BD39ADA70DBC4
:101D4000CFDAACDA10EF12F008C014F009C015F0C9
:101D5000166A176A120004C014F005C015F0166A5E
:101D6000176A12000D6A0E6ABBDA6CEC21F006C02D
:101D700014F007C015F008C016F009C017F006C02F
:101D8000E6FF07C0E6FF12006CEC21F002C014F081
:101D900003C015F004C016F005C017F01200DBCF29
:101DA00009F03DDA3DDB9CDA64DA10EF12F0DCC1B9
:101DB000E6FFDDC1E6FFDEC1E6FFDFC1E6FF42EC84
:101DC00002F0E552E5521200176E16C0E6FFE66E0D
:101DD00030EC01F00ED3E66EE66A1FEF11F0E66E0E
:101DE000C9EC19F0E552E5521200DECF14F0DDCF58
:101DF00015F09FD20101C351C725166EC451C821E9
:101E0000176ED551165C146ED6511758156E14C046
:101E1000E6FFE66ED551C35D186EC451D655196EF6
:101E200018C0E6FFE66E30EC01F08DDB0101220EFA
:101E3000FC191200E66EE66A29EF12F0BDC1E6FF5A
:101E40000DDBE552E5521200DCC106F0DDC107F002
:101E5000DEC108F0DFC109F01200EA51EE5CEB517F
:101E6000EE58EC51EE58ED51EE581200F251EE5C86
:101E7000F351EE58F451EE58F551EE581200EAC104
:101E8000E6FFEBC1E6FFECC1E6FFEDC1E6FFE6C110
:101E9000E6FFE7C1E6FFE8C1E6FFE9C1E6FF1200A1
:101EA000F2C1E6FFF3C1E6FFF4C1E6FFF5C1E6FFCC
:101EB000EEC1E6FFEFC1E6FFF0C1E6FFF1C1E6FFCC
:101EC0001200EA6E030EEBCFF3FF12000101D52BD7
:101ED000000ED62302015C6B060E0101BD19120033
:101EE000C9DA44D2E66EE66A62EC17F0E552E552D2
:101EF0001200E66EE66A6DEC17F0E552E55212004C
:101F0000D9CFE6FFE1CFD9FF1200E552E7CFD9FFE5
:101F10001200DCC114F0DDC115F0DEC116F0DFC126
:101F200017F0120050EC0BF0146E080EE15E145026
:101F30001200D655156E14C0E6FFE66E1200B6C14B
:101F4000C3F1B7C1C4F1BAC1C5F1BBC1C6F1B4C1D7
:101F5000C7F1B5C1C8F1B8C1C9F1B9C1CAF1120020
:101F6000AEC1C3F1AFC1C4F1B2C1C5F1B3C1C6F1D5
:101F7000ACC1C7F1ADC1C8F1B0C1C9F1B1C1CAF1BD
:101F80001200DBCF09F08AD910EF12F00E6AE6C119
:101F900006F0E7C107F0E8C108F0E9C109F0120056
:101FA0000E6AEAC106F0EBC107F0ECC108F0EDC122
:101FB00009F012000E6AEEC106F0EFC107F0F0C1A1
:101FC00008F0F1C109F012000E6AF2C106F0F3C187
:101FD00007F0F4C108F0F5C109F01200E66EE66AF8
:101FE000010EE66E1200D1DDF3CF14F0F4CF15F040
:101FF000F350F4101200E6C114F0E7C115F0E8C187
:1020000016F0E9C117F01200EAC114F0EBC115F0A7
:10201000ECC116F0EDC117F01200EEC114F0EFC1E3
:1020200015F0F0C116F0F1C117F01200F2C114F072
:10203000F3C115F0F4C116F0F5C117F01200E65126
:10204000EE5CE751EE58E851EE58E951EE581200B7
:10205000EE50EA5DEE50EB59EE50EC59EE50ED5972
:102060001200EE50E65DEE50E759EE50E859EE50A2
:10207000E9591200EE51EE5CEF51EE58F051EE5876
:10208000F151EE581200EE50F25DEE50F359EE5061
:10209000F459EE50F5591200EE50EE5DEE50EF5946
:1020A000EE50F059EE50F1591200E66EE66AAAECD5
:1020B00017F0E552E552120054D9EECF06F0EECFFC
:1020C00007F0EECF08F0EFCF09F01200A70EE66E92
:1020D0003B0EE66E1200EA0EE96E010E47D1E60EE7
:1020E000E96E010E43D1F20EE96E010E3FD1EE0E04
:1020F000E96E010E3BD1E80EE66E030EE66E9AEC39
:102100001EF0E552E5521200800EDC5D510EDD59E5
:10211000010EDE59000EDF5912000101BD6FBE6BCA
:10212000E66E2EEF12F06BD9FFEF11F06DD904EFD0
:1021300012F012D9ACEF11F0E66AE66A1CEC0CF072
:10214000146E060EE15E14501200DBCFE6FFFD0EAA
:10215000DBCFE6FF1200630E145C000E1558120070
:10216000FD0EDBCF16F0FE0EDBCF17F01200E552AE
:10217000E552570EE66E120EE66E1200020E06C013
:10218000DBFF030E07C0DBFF1200DBCFE6FFC9EC6D
:1021900019F0E552E5521200010E0101F86FF96BDA
:1021A000FA6FFB6B1200FD0EDBCF08F0FE0EDBCFEB
:1021B00009F01200F90EDBCFE9FFFA0EDBCFEAFFE0
:1021C0001200D56BD66B060EBD191200BD51490821
:1021D000000EBE551200100EE66E0E0EE66E1200D8
:1021E000BD2B000EBE23BE3512000A0EE66EE66A57
:1021F0001200E66EE66AE66A83EF0EF0FB0EDBCFB6
:1022000006F0FC0EDBCF07F0FD0EDBCF08F0FE0E74
:1022100012006DDDA4EF0EF06ADDABEF0EF0800E64
:102220000B6E510E0C6E010E0D6E1200E66EE66A1C
:1022300083EF0EF04AD96FDD0101D705120006ECDD
:1022400015F0186E060EE15E185012000101D5510E
:10225000C55D146EC6516DDEC551C925186EC651D7
:10226000CA21196ED551185C166ED6511958E4EF73
:102270000EF0100E0B6E0E0E0C6E0D6A1200F70EA5
:10228000DBCF06F0F80EDBCF07F0F90EDBCF08F05E
:10229000FA0E12005DEC14F096EF0EF03C0E0B6E91
:1022A0000C6A0D6A12000101D551C95D146ECA5144
:1022B00040DED551C95D166ECA51D65585DD010186
:1022C0000F0EFC1912000101D551C75D146EC851E3
:1022D00030DED551C75D166EC851D655E4EF0EF00D
:1022E00002C006F003C007F004C008F005C009F002
:1022F0001200E66E010EE66E83EF0EF0FD0EDBCFF0
:1023000014F0FE0E1200FB0EDBCF14F0FC0E1200D8
:1023100065DE83EF0EF0E60EE96E010ED2DDED51C3
:10232000F3181200EE0EE96E010ECBDDF551F31835
:1023300012000A0E0D6E0E6A14C008F015C009F0E6
:1023400019EF21F0020EDBCF14F0030E1200C9C109
:10235000E6FFCAC1E6FF1200C5C1E6FFC6C1E6FF3F
:102360001200D9CFE9FFDACFEAFF1200EA6E030EBE
:10237000EB5012005C0EE66E3B0E31DD0F0ED9D035
:102380002E0EE66E3B0E2BDD220ED3D0000EE66E37
:102390003B0E25DD180ECDD0F7DC100E0B6E0E0EA9
:1023A0000C6EE0DC080E12000C0EE66E3A0EE66EC5
:1023B00096EF12F0E9DC3C0E0B6E0C6AD3DC0B0ED0
:1023C000120098DC080E86EF0EF094DC0C0E86EFFF
:1023D0000EF090DC0B0E86EF0EF08CDC0E0E86EF0E
:1023E0000EF088DC0F0E86EF0EF095DC000E1AEF73
:1023F0000FF0A3EF12F0DBDCE552E5521200C3C18F
:10240000E6FFC4C1E6FF1200C7C1E6FFC8C1E6FF90
:102410001200BADC02C0E6FF03C0E6FF0E0E120097
:102420000E6A6CEF21F0DBCF09F088DCBEEF10F014
:1024300007C0DBFFDADCA4EF0EF0A6DC02500310CD
:102440000410051012007ADC06500710081009105D
:10245000120079EC17F0E552E5521200BEC1E6FF1A
:102460008BEF04F02EDDE951F31812002ADDF15153
:10247000F3181200DC0EE96E010E1200BFDE81DDE2
:1024800002C0DEFF03C0DDFFB9DE13EF12F0F90E6C
:10249000DBCF14F0FA0E12002DDCE66A010EE66EB8
:1024A000CEDE2CDF0CEF11F025DC010EE66EE66EC1
:1024B000C6DE29DF09EF11F0200EE66E3A0E99DE36
:1024C0001B0EE66E3A0E88EF11F006EC1CF0A3EF3F
:1024D00012F01CDC18DF0CEF11F08BDE0101010E95
:1024E000FA191200040EDBCF14F0050E1200E66E8E
:1024F000020E16EF11F0E66E010E16EF11F0110E3E
:10250000E66E3A0EE66E040E16EF11F0070EE66E5A
:102510003A0EE66E0C0E16EF11F0FBDCBFDE0E6A13
:1025200024EF0FF0EDDCEADE09EF11F05EDE83EF61
:102530000EF00101FC6FFD6B1200A9DF09EF11F035
:10254000A6DF0CEF11F0E552E552E552E55212001C
:10255000BCEC16F07BDB15AE02D01668176820DBEA
:1025600013E289DB49DB04E6050E145C000E155806
:1025700006E2020EDB2A030EF5E3DB2AF3D7DF2A9D
:10258000010EE8E3DB2AE6D7040EE15C02E2E16A31
:10259000E552E16EBBD2F0DB59DB15AE02D0166816
:1025A0001768FEDA13E267DB27DB04E6EE0E145C45
:1025B000000E155806E2020EDB2A030EF5E3DB2AB5
:1025C000F3D7DF2A010EE8E3DB2AE6D7040EE15C4D
:1025D00002E2E16AE552E16E99D2D4DBF00B6BDBEB
:1025E000FE0EDB38F00B811278DA90D2C2DB190EC6
:1025F00050DB0F0E8116F80E81160F0E8116300E6D
:102600005ADB300E58DB300E56DB818A66DA280E34
:10261000E66EE3DFE5520C0EE66EDFDFE552E552D3
:1026200075D29DDB010EDB6A81944ADBE76E010EF9
:10263000E7CFDBFF819644DBDF6E010EDB50DF125C
:102640008196010E51DADF50146E020EE15C02E257
:10265000E16AE552E16E145059D28BDBDF6AE1DFAB
:10266000DF6EDFBEFCD7DF50E55250D28BDB81122C
:102670008186050E39DA8196050E36DA47D241DABF
:102680008194050E31DA98DA41D23BDA8184050E65
:102690002BDA92DA81943AD23BD33AD332DAFD0E76
:1026A000DBCFF6FFFE0EDBCFF7FF0800F5500DE0A5
:1026B000FD0EDBCFF6FFDB2AFE0EDBCFF7FF01E3DB
:1026C000DB2A0800F5501BDBEAD720D252DBFD0ED7
:1026D000DB500F0B146EFE0EDB50010B400DF35060
:1026E0001424DF6E7F0EDF14800FDF6EDFCFE6FF76
:1026F000C6DFE552E5520AD2010EE66EC0DFE552B2
:10270000E66AE66AC8EF16F0FCD9050EE126010E6E
:10271000F36EDB6EB0DA040EDB6ADF6ADFCF14F033
:10272000156A14BE156899DA15501718E8AE02D06C
:10273000173404D01650145C175015581FE2FD0EC4
:10274000DBCF14F0FE0EDBCF15F0166A176A15AE5C
:1027500002D016681768D950010FE96EDACFEAFF88
:1027600014C00BF015C00CF016C00DF017C00EF021
:10277000DBDA99EC22F0E1DADF2AD0D7010EDBCFE9
:1027800014F0020EDBCF15F0030EDBCF16F0040EB3
:10279000DBCF17F014C006F015C007F016C008F024
:1027A00017C009F0050EE15C02E2E16AE552E16E54
:1027B000ADD1D5DAFB0EDBCF14F0FC0EDBCF15F07C
:1027C000FD0EDBCF16F0FE0EDBCF17F01450151008
:1027D0001610171003E1300E92DA36D0D950FB0FE5
:1027E00014DA01E618DA05E22D0E89DAD950FB0F6A
:1027F000CAD9DE52070EDD6E37DAE8AE02D01434E5
:1028000003D0E750D88014541FE217DA18BE1968B5
:1028100071D936DA5EDA08DA0BE0010EDF6EDB041E
:102820001C6E1D6A1CBE1D6883D953DA9FD903D064
:10283000DF5002E0300E63DA00DA18BE19685AD9A8
:10284000D950FB0F6CD9D8D7020EE15C02E2E16AE5
:10285000E552E16E5BD155D9C7D9D950F90F53DA9A
:10286000EECFE6FFEECFE6FFEECFE6FFEFCFE6FFDF
:10287000A0DFE552E552E552E55248D142D9B4D93C
:10288000FB0EDBCFE6FFFC0EDBCFE6FF07DFE552FA
:10289000E5523CD136D9F8C014F0F9C015F0040E59
:1028A000D89014361536E806FBE192D9FE0EDBCF40
:1028B000EFFFFA2B000EFB2329D15BDADF6ADFCFB3
:1028C00014F0100EE76E1418E8AE02D0E73402D010
:1028D000E750145C18E2DFCFE9FFEA6AE9BEEA6874
:1028E000410EE9260F0EEA22200EEF6EDFCFE9FF40
:1028F000EA6AE9BEEA68510EE9260F0EEA22200EC6
:10290000EF6EDF2ADCD7E55201D133DA0F014051F7
:10291000030A29E0010A1CE0030A0CE0010A32E183
:102920003BDA080EDF5C03E2DF50B9D9FAD70F01BA
:10293000010E17D0080EE66EE66A09D9080EDF5CB4
:1029400004E2080EDF24ABD9F9D70F01020E09D03B
:102950000BDA080EDF5C03E2DF50A7D9FAD70F01CC
:10296000030E406F10D0080EE66E010EE66EEFD833
:10297000080EDF5C04E2080EDF2497D9F9D70F01B7
:10298000406B01D0406BE552C1D0F3D90F014051EB
:10299000010A0DE0010A15E1FFD9100EDF5C03E228
:1029A000DF507DD9FAD70F01010E406F0BD0DCD973
:1029B000100EDF5C03E2DF5078D9FAD70F01406BCD
:1029C00001D0406BE552A2D0D4D9E6D9100EDF5C1D
:1029D00003E2DF5064D9FAD7C7D9100EDF5C03E2F7
:1029E000DF5063D9FAD7E55291D08BD8B3D8F8C06D
:1029F00014F0F9C015F0040ED89014361536E80618
:102A0000FBE1E6D8FC0EDBCFEFFF80D0A8D9A2D83F
:102A1000F90EDBCF14F0FA0EDBCF15F01ED91450EF
:102A200015101610171003E1300E0CD936D0D950FE
:102A3000F90FEBD801E6EFD805E22D0E03D9D950F6
:102A4000F90FA1D8DE52070EDD6E0ED9E8AE02D026
:102A5000143403D0E750D88014541FE2EED818BEC7
:102A6000196848D80DD940D9DFD80BE0010EDF6EC8
:102A7000DB041C6E1D6A1CBE1D685AD835D976D879
:102A800003D0DF5002E0300EDDD8D7D818BE196869
:102A900031D8D950F90F43D8D8D7020EE15C02E201
:102AA000E16AE552E16E32D02CD854D8FB0EDBCF70
:102AB000F6FFFC0EDBCFF7FF0800F5500DE0FB0E34
:102AC000DBCFF6FFDB2AFC0EDBCFF7FF01E3DB2ACF
:102AD0000800F550B7D8EAD719D08186010ED9D8A9
:102AE0008196010E49EF16F0E66EE66AE66AE66A3E
:102AF0002FDD56D118C0E6FF19C0E6FF10D9A6EFAA
:102B000016F0D9CFE6FFE1CFD9FF1200E552E7CFAB
:102B1000D9FF1200EA22EF50F2D8DF2A1200F3D8D0
:102B2000AFD802D9D1EC22F008D9010EDB06120091
:102B30001CC0E6FF1DC0E6FFF2D806C018F007C0B3
:102B400019F008C01AF009C01BF040EF16F020D9A8
:102B5000DF6A1200FE0EDB50010B0001F86FF96B0B
:102B6000FD0EDB500F0BFA6FFB6B1200DBCF09F091
:102B7000D1EC22F0EBD8300E1426000E15221622CE
:102B8000172214501200BFD8000EEE6CEF1EEE227A
:102B9000EF1EEE22EF1EEF22ED52ED52ED5212002B
:102BA000D950FB0FB0D8EE50145CEE501558EE50D3
:102BB0001658EE5017581200FE0EDBCFE6FF56DD1A
:102BC000E552FE0EDB38F00BE66E50DDE5521200EA
:102BD000410E14260F0E152214500001FA25E96E3D
:102BE0001550FB21EA6E1200FD0EDBCFE6FFFE0E54
:102BF000DBCFE6FFC8EF16F0020EDBCF14F0030EBA
:102C0000DBCF15F0D890155012007DD8D890030E68
:102C1000EB50000A1200000EEE5C000EEE58000EA3
:102C2000EE58000EEE581200DBCF09F0D1EC22F086
:102C300006500710081009101200010EDB04186E70
:102C4000196A1200E66E26DEE5521200DECF14F09D
:102C5000DDCF15F0166A176A1200FB0EDBCF16F0F7
:102C6000FC0EDBCF17F01200010EDBCF14F0000ECC
:102C7000E76E14181200020EDB6A030EDB6A120004
:102C800006C00BF007C00CF008C00DF009C00EF034
:102C90001200E66EE66AE66AE66A7DDC81D0EA6AE0
:102CA000410FE96E0F0E8AEF15F0EA6A510FE96ED7
:102CB0000F0E8AEF15F0811210DF0F0E8116120031
:102CC0000F0E12DF0F0E811281860EDF0F0E8114A0
:102CD0001200FB0EDBCF06F0FC0EDBCF07F0FD0E83
:102CE000DBCF08F0FE0E1200F90EDBCF06F0FA0E75
:102CF000DBCF07F0FB0EDBCF08F0FC0E1200E66E18
:102D0000CCDCE5521200E96EFF0EDA20EA6E12000A
:102D1000F8DEFE0EDBCFE6FFB8DCE552F7D60A0E92
:102D2000E66EE66AF1DC3CD0EECF06F0EECF07F0BF
:102D3000EECF08F0EFCF09F0120005C0EDFF04C0A0
:102D4000EDFF03C0EDFF02C0EFFF120006C014F05C
:102D500007C015F008C016F009C017F01200D1DE48
:102D6000020EE126DF6A1200E66A010EE66EA7EFA8
:102D700015F0C7DEE6521200C4DE040EE126DE6A5C
:102D8000DD6A1200BEDE0F0E8116FE0EDB50120051
:102D90009DDCE552E5521200E66AE66AA7EF15F0FF
:0A2DA000E552E552E552E55212003B
:062DAA00ECD907E165DA37
:102DB00001E2FCD903E389DA8310836E55D2E2D9AC
:102DC00007E15BDA01E2F2D903E382DA8314836E6E
:102DD0004BD24EDAF0D9EF0407E1BDD9F0DFE5526E
:102DE000E552E9D9EF6A07D0B6D9DFDFE552E552FF
:102DF000E2D9010EEF6E38D2C5D907E13EDA01E221
:102E0000D5D903E362DA8910806E2ED2BBD907E1EF
:102E100034DA01E2CBD903E35BDA8914806E24D281
:102E2000D8D989CFE7FF070B04E0E742E79EE80621
:102E3000FCE1E750010B010803E18DD9E7DF02D087
:102E40008AD9DADFE552E5520FD28CD98950166E55
:102E5000C00E161614501610806E06D202013051A4
:102E60008410846E12000201301D8414846E1200DE
:102E7000A8D98FD9E8AE02D0173401D0F0D918E222
:102E800015DA02E0B2D9FEE176D905E1155003E189
:102E9000000E0FDA02D0000E10DAE552E552010EF4
:102EA0009CD9010E9ED9DF2A010EE3E3DB2AE1D78C
:102EB000020E93D9020E95D9020EE15C02E2E16A9C
:102EC000E552B3D131D908E1D8D901E26FD904E391
:102ED000FCD902014811486FD3D126D909E1CDD9D7
:102EE00001E264D905E3F4D902014815486F496B42
:102EF000C7D1E7D902014815166EFF0E4915176EA6
:102F000014501610486F15501710496F73D9E66E9C
:102F1000AFDF15D148C214F049C215F0D890153270
:102F2000143229D90AE1155008E1010E80D9040EA6
:102F30007ED9EB0EE66E3B0E07D0010E7ED9040E55
:102F40007CD9DF0EE66E3B0EE66EC9EC19F0E55259
:102F5000E55212003ED948C214F049C215F002E011
:102F600044D9FEE108D905E1155003E1F4D8B5DFF5
:102F700002D0F1D8A7DFE552E55276D122D909D99E
:102F8000E8AE02D0173401D06AD918E28FD902E036
:102F90002CD9FEE1F0D805E1155003E1030E89D9E3
:102FA00002D0030E8AD9E552E552040E16D9040E5A
:102FB00018D9DF2A010EE3E3DB2AE1D7050E0DD98C
:102FC000050E0FD9020EE15C02E2E16AE5522DD155
:102FD000ABD808E152D901E2E9D804E376D902017D
:102FE0004C114C6F52D1A0D809E147D901E2DED88B
:102FF00005E36ED902014C154C6F4D6B46D161D97A
:1030000002014C15166EFF0E4D15176E145016105A
:103010004C6F155017104D6FF4D8E66EAFDF8FD0A0
:10302000D8D84CC214F04DC215F002E0DED8FEE153
:10303000A2D805E1155003E18ED8D5DF02D08BD898
:10304000C7DFE552E55210D1BCD8A3D8E8AE02D014
:10305000173401D004D91CE229D902E0C6D8FEE118
:103060008AD807E1155005E1000EE66EE66A9DDE9E
:1030700004D0000EE66EE66AA2DEE552E552010ECD
:10308000E2D8010EE6D8DF2A010EDFE3DB2ADDD726
:10309000020ED9D8020EDDD8020EE15C02E2E16A2E
:1030A000E552C3D041D808E1E8D801E27FD804E373
:1030B0000CD902015011506FEDD036D809E1DDD89E
:1030C00001E274D805E304D902015015506F516B29
:1030D000E1D0F7D802015015166EFF0E5115176E8C
:1030E00014501610506F15501710516F91D8E66E8E
:1030F000ABDF25D06ED850C214F051C215F002E0FB
:1031000074D8FEE138D805E1155003E124D8D5DFA5
:1031100002D021D8C7DFE552E552A6D0C0D8300E84
:10312000E926020EEA221200A3D8FD0EDBCF14F02E
:10313000FE0EDBCF15F00001800E15141200E552D3
:10314000E552E552E55290D0FD0EDBCF16F0FE0EB3
:10315000DBCF17F01200FD0EDBCFE6FFFE0EDBCF5C
:10316000E6FF120085D83F0EE76EFD0EDBCF14F0B0
:10317000E75014161200010E1416000E1516010E5B
:103180001418120075D8FE0EDBCF15F0800E151442
:103190001200DECF14F0DDCF15F0FB0EDBCF16F002
:1031A000FC0EDBCF17F01550171812001650070849
:1031B000000E1754120073D8380EE926020EEA22C8
:1031C000120056D8020EE126DE6ADD6ADE6ADD6A8A
:1031D00012004ED8FD0EDB5012006BD8E552E552BE
:1031E00012006BD8E552E5521200D8901532143215
:1031F000E80412004AC2E6FF4BC2E6FF48C2E6FFFF
:1032000012004EC2E6FF4FC2E6FF4CC2E6FF1200BC
:1032100052C2E6FF53C2E6FF50C2E6FF1200DF5083
:1032200016C014F017C015F01200E16E1DD0E66E46
:10323000E66A53DEE552E5521200E66EE66A42DEC9
:10324000E552E5521200E66EE66AAFDDE552E55260
:103250001200E66EE66AB3DDE552E5521200165042
:10326000145C175015581200E552E7CFD9FF120031
:10327000D9CFE6FFE1CFD9FF120066DF1734120085
:10328000B9DF49C2E6FFF4DD5AD7BBDF4DC2E6FF26
:1032900075DE55D7BDDF51C2E6FFD6DE50D7FD0E35
:1032A000DBCFE9FFFE0EDBCFEAFF12004DDF0FEFB1
:1032B00019F0E66EE66AFCEF16F0E66EE66A06EFD7
:1032C00017F050DF156AC00E120028DFEF50120011
:0632D00025DFEF1C1200D7
:0A32D600B06A810EAF6EAC8AAC94B2
:1032E000B886AC98AB8EAB889E9A9D8A9F8A949C38
:1032F000948E9F8A9F88120058D9040EE126DE6AB8
:10330000DD6ADECF14F0DDCF15F086D91550171821
:10331000E8AE02D0173404D01650145C175015587C
:103320001DE2020EDB6A030EDB6A020EDBCF14F035
:10333000030EDBCF15F0D890155004E6EE0E145CAA
:10334000000E155806E2020EDB2A030EEEE3DB2A1E
:10335000ECD7DF2A010ED5E3DB2AD3D7040EE15CDC
:1033600002E2E16AE552E16E25D11FD99EA8FED79F
:10337000FE0EDB50AD6E9E981DD117D945D908E0E1
:1033800043D923D9FD0EDB2AFE0EF8E3DB2AF6D75C
:1033900011D10BD91ED90CE01CD917D9FD0EDBCFEA
:1033A000F6FFDB2AFE0EDBCFF7FFF4E3DB2AF2D7D2
:1033B00001D1FBD8050EE126010EF36EDB6E020E85
:1033C000DB6A030EDB6A040EDB6ADF6ADFCF14F010
:1033D000156A14BE1568FB0EDBCF16F0FC0EDBCFB2
:1033E00017F015501718E8AE02D0173404D0165055
:1033F000145C175015581FE2FD0EDBCF14F0FE0EC3
:10340000DBCF15F0166A176A15AE02D0166817687A
:10341000D950010FE96EDACFEAFF14C00BF015C0E6
:103420000CF016C00DF017C00EF0DCD899EC22F0AD
:10343000E2D8DF2ACBD7010EDBCF14F0020EDBCFB0
:1034400015F0030EDBCF16F0040EDBCF17F014C01F
:1034500006F015C007F016C008F017C009F0050EF9
:10346000E15C02E2E16AE552E16EA4D09ED8020E70
:10347000E126DF6AFB0EDBCF14F0FC0EDBCF15F08C
:10348000CBD8145015101610171003E1300E9DD82C
:103490006DD094D8D890030EEB50000A08E6000EC9
:1034A000EE5C000EEE58000EEE58000EEE580EE2E6
:1034B0002D0E8BD883D8000EEE6CEF1EEE22EF1E81
:1034C000EE22EF1EEF22ED52ED52ED52DE520A0EC9
:1034D000DD6E010EDBCF14F0000EE76E1418E8AEBF
:1034E00002D0143403D0E750D88014543FE2010EC8
:1034F000DB04186E196A18BE196850D840D80650F7
:103500000710081009101EE0010EDF6EDB041C6EB0
:103510001D6A1CBE1D681CC0E6FF1DC0E6FF83D8E7
:1035200006C018F007C019F008C01AF009C01BF057
:1035300026D882D8300E1426000E15221622172205
:10354000145003D0DF5002E0300E3FD8010EDB04F0
:10355000186E196A18BE196821D830D876D842D8A2
:10356000D1EC22F048D8010EDB06B3D7020EE15CA5
:1035700002E2E16AE552E16E1DD0CDEF21F065D89F
:10358000FB0EDBCF06F0FC0EDBCF07F0FD0EDBCF32
:1035900008F0FE0EDBCF09F0D1EF22F018C0E6FFF5
:1035A00019C0E6FF40D81CEF1BF0D9CFE6FFE1CFF2
:1035B000D9FF1200E552E7CFD9FF1200D950FB0F17
:1035C000E96EFF0EDA20EA6E1200E66ECEDEE552FC
:1035D0001200FD0EDBCFF6FFFE0EDBCFF7FF08007B
:1035E000F5501200EECF06F0EECF07F0EECF08F068
:1035F000EFCF09F0120005C0EDFF04C0EDFF03C0DE
:10360000EDFF02C0EFFF1200FD0EDBCFE9FFFE0E63
:10361000DBCFEAFFEF501200FD0EDBCF16F0FE0EFF
:10362000DBCF17F012000A0EE66EE66AC2DEE55244
:10363000E552E552E552120006C014F007C015F03D
:1036400008C016F009C017F0120006C00BF007C042
:0C3650000CF008C00DF009C00EF01200D4
:04365C0066D9040E19
:10366000E126DE6ADD6A020EDB6A030EDB6ADE6AD1
:10367000DD6A46D904E6070E145C000E155801E316
:1036800086D0000EDFCF08F0010EDBCF09F0060E6A
:10369000081801E109502EE0050E081801E1095053
:1036A00023E0040E081801E109501CE0030E08187D
:1036B00001E1095015E0020E081801E109500EE081
:1036C000010E081801E1095007E0085018E10950FF
:1036D00016E1020EF36E0BD0030E07D0060E05D0D6
:1036E000050E03D0040E01D0010EF36E020EF3CFCF
:1036F000DBFF02D0020EDB6A030EDB6A0AD0D9CFF1
:10370000E9FFDACFEAFF020EEECFDBFF030EEDCFCB
:10371000DBFFFDD815340CE214500A08000E1554D6
:1037200007E20A0EF36EFD0EF3CFDBFFFE0EDB6A3F
:10373000EED80E0E1502F3CF15F01402F3CF14F0ED
:10374000F4501526120E1426010E1522020E086ED4
:10375000096ADECF0DF0DDCF0EF0A0EC21F01450A1
:103760000624E96E15500720EA6EEE50ED1004E0D5
:10377000D5D852EC18F003D0D1D85DEC18F0E55252
:10378000E552DF2A010E01E274D7DB2A72D7040E5C
:10379000E15C02E2E16AE552E16ECCD0C6D8020EED
:1037A000E126DE6ADD6ADE6ADD6AAAD804E6040E76
:1037B000145C000E15580EE2DECFE9FFDDCFEAFF04
:1037C00093D8DFEC16F0E552E552DF2A010EEDE367
:1037D000DB2AEBD7B3D8D890E936EA36080EE926CB
:1037E000010EEA22EECFE6FFEFCFE6FF37DFE5522C
:1037F000E552A4D879D8D5EC16F0E552E552020E80
:10380000E15C02E2E16AE552E16E94D08ED8FD0EF1
:10381000DBCF08F1FE0EDBCF09F10A0E0D6E0E6A4A
:1038200008C108F009C109F019EC21F008C008F13D
:1038300009C009F1FD0EDBCF0AF1FE0EDBCF0BF163
:103840000A0E0D6E0E6A0AC108F00BC109F019ECE0
:1038500021F004C00AF105C00BF1FB0EDBCF0CF127
:10386000FC0EDBCF0DF10A0E0D6E0E6A0CC108F0D6
:103870000DC109F019EC21F008C00CF109C00DF1DF
:10388000FB0EDBCF0EF1FC0EDBCF0FF10A0E0D6E3F
:103890000E6A0EC108F00FC109F019EC21F004C046
:1038A0000EF105C00FF146D0010110C114F011C195
:1038B00015F0102B000E112314C0E6FF15C0E6FF13
:1038C0006DDFE552E552040E010111AF02D0D89030
:1038D00003D0105D000E115902E3106B116B120042
:1038E0002EEC17F033EF17F0D890E936EA36000ED9
:1038F000E926010EEA22EECFE6FFEFCFE6FF120047
:10390000DECF14F0DDCF15F0D89015501200FD0E6B
:10391000DBCF14F0FE0EDBCF15F01200020EDBCF72
:10392000E6FF030EDBCFE6FF1200D9CFE6FFE1CFC3
:10393000D9FF1200E552E7CFD9FF1200FD0EDBCF11
:0A394000E9FFFE0EDBCFEAFF1200E4
:06394A00535452454554A0
:1039500020323A2059454C4C4F570053545245455C
:103960005420323A20475245454E00214C494748A1
:10397000543A323A352300214C494748543A323AB6
:1039800036230053545245455420313A2059454C72
:103990004C4F5700214C494748543A333A3523009D
:1039A000214C494748543A333A3623005354524540
:1039B000455420313A20475245454E004552524F1A
:1039C00052004D6F64653A0053455454494E4700C8
:1039D000494E56414C4944005354524545542032B7
:1039E0003A205245440053545245455420313A2020
:1039F000524544004D4F444946592054494D4500D5
:103A0000424C494E4B590059454C320047524532C1
:103A10000059454C31004752453100454E443A006B
:103A200053544152543A00424C494E4B5920544948
:103A30004D45005343484544554C452028322F32CC
:103A400029005255534820484F555200534348458A
:103A500044554C452028312F322900525553482DCA
:103A600048204D4F4445004455524154494F4E2043
:103A700028322F3229004E4F524D414C204D4F4499
:103A800045004455524154494F4E2028312F322988
:103A9000004D414E55414C204D4F44450053455437
:103AA00054494E472028342F342900534348454475
:103AB000554C452054494D450053455454494E47B3
:103AC0002028332F342900474C4F42414C20544981
:103AD0004D450053455454494E472028322F342930
:103AE0000054524146464943204455524154494F9F
:103AF0004E0053455454494E472028312F34290055
:103B0000214C494748543A323A34230059454C3104
:103B1000205245443220525553482D480059454CB7
:103B2000312052454432204E4F524D414C00214CE1
:103B3000494748543A333A342300475245312052DA
:103B400045443220525553482D48004752453120B4
:103B500052454432204E4F524D414C00214C494772
:103B600048543A313A352300524544312059454CA6
:103B70003220525553482D48005245443120594572
:103B80004C32204E4F524D414C00214C4947485435
:103B90003A313A362300214C494748543A313A34B5
:103BA0002300230A0021003A00202000524544311E
:103BB000204752453220525553482D480052454423
:103BC000312047524532204E4F524D414C0020206B
:103BD0002020202020202020202020202020002104
:103BE0004C494748543A373A372300214C49474813
:073BF000543A323A3523007C
:083BF800F1D8D59EFD0EDBCFD4
:103C000054F2FE0EDBCF55F2D59C05D9D59AD58658
:103C1000F28AF294F194D58EE6D0D59E1200FBD8AC
:103C2000D58E1200DBD8CD90FD0EDBCF56F2FE0E06
:103C3000DBCF57F2F7D89D809E909F90CD8ECD8C94
:103C4000CD98CD9ACD96CD92CD80CDD0EBD8CD80EC
:103C50001200CD901200C2D8CA94CC6AFE0EDB507E
:103C60000201586F596BCB6E9D829E929F92CA90B3
:103C7000CA92CA84B8D058C2CBFFCA841200CA9470
:103C80001200ACD8B190FD0EDBCF5AF2FE0EDBCFA6
:103C90005BF2CFD80750B36ECCD8B5D8B26EA08245
:103CA000A192A292B18EB198B19AB192B1809BD0FB
:103CB000C0D80350B26EBDD89ED8B36EB18012008A
:103CC000B19012000201642B000E65236C51645DFB
:103CD0006D51655904E3646B656B010E5C6F1200F6
:103CE0000201662B000E67236E51665D6F516759A6
:103CF00004E3666B676B010E5D6F12000201682BB7
:103D0000000E69237051685D7151695904E3686B55
:103D1000696B010E5E6F120002016A2B000E6B23AD
:103D200072516A5D73516B5904E36A6B6B6B010EE0
:103D30005F6F120053D8FD0EDBCF6CF2FE0EDBCFAF
:103D40006DF20201646B656B5C6B4DD047D8FD0E64
:103D5000DBCF6EF2FE0EDBCF6FF2050E0D6E0E6A3C
:103D60006EC208F06FC209F019EC21F008C06EF2C3
:103D700009C06FF20201666B676B5D6B34D02ED8A1
:103D8000FD0EDBCF72F2FE0EDBCF73F20A0E0D6E6C
:103D90000E6A72C208F073C209F019EC21F008C073
:103DA00072F209C073F202016A6B6B6B5F6B1BD01E
:103DB0001C6A1A50175C146E1B501858156E1C5054
:103DC0001958166E0C6A010E0D6E0E6A14C007F0BB
:103DD00015C008F016C009F03FEF21F0D9CFE6FF7B
:103DE000E1CFD9FF1200E552E7CFD9FF12001768E3
:103DF0001868196A120007C014F008C015F009C04D
:103E000016F00750120003C014F004C015F005C0EE
:103E100016F00350120014D80350D66E11D8EBDF01
:103E2000D76E120014D80750CF6E11D8ECDFCE6ECB
:103E30001200DDDF5AC21AF05BC21BF0D8EF1EF091
:103E4000D6DF54C21AF055C21BF0D8EF1EF0CFDFF8
:0C3E500056C21AF057C21BF0D8EF1EF04B
:043E5C000F0E946E43
:103E600082681200DDD80CD904E6080E145C000E3E
:103E700015581FE216D9280EE926020EEA22EF5045
:103E800082140FE1CAD8EECF14F0EFCF15F0010E77
:103E90001426000E1522C1D814C0EEFF15C0EDFF88
:103EA00003D0BBD8EE6AED6ADF2A010EDCE3DB2A21
:103EB000DAD7040EE15C02E2E16AE552DCD0B0D868
:103EC000DFD801E6E1D836E2B4D8BFD801E6DCD8C5
:103ED0002CE2C4D821E1DECF18F0DDCF19F0D89064
:103EE00018361936D89018361936020EDB501824B9
:103EF000E96E030EDB501920EA6ECBD8EECF16F038
:103F0000EFCF17F0010E1626000E172275D816C037
:103F1000EEFF17C0EDFF03D06FD8EE6AED6A020E18
:103F2000DB2A030ED2E3DB2AD0D7DF2A010EC8E357
:103F3000DB2AC6D7040EE15C02E2E16AE5529BD0BF
:103F40006FD8B4D8FD0EDBCF16F0FE0EDBCF17F026
:103F500015501718E8AE02D0173404D01650145C70
:103F60001750155816E2020EDB6A030EDB6A6DD895
:103F700004E6EE0E145C000E155806E2020EDB2A73
:103F8000030EF5E3DB2AF3D7DF2A010EDAE3DB2A9F
:103F9000D8D7040EE15C02E2E16AE5526CD040D869
:103FA0006FD801E671D822E244D84FD801E66CD828
:103FB0000FE222D8EE6AED6A51D804E11DD8010E55
:103FC000EE6EED6A020EDB2A030EEFE3DB2AEDD77D
:103FD0008250816EE80EE66E030EE66EB1DFE552AA
:103FE000E552DF2A010EDCE3DB2ADAD7040EE15CBE
:103FF00002E2E16AE5523FD059D8D890143615361E
:10400000D89014361536020EDB501424E96E030ED8
:10401000DB501520EA6E49EF20F043D849EF20F03D
:10402000D9CFE6FFE1CFD9FF040EE126DE6ADD6AD3
:10403000120037D8200EE926020EEA22EF1C826E0B
:10404000020EDB6A030EDB6A1200020EDBCF14F0F5
:10405000030EDBCF15F0D89015501200020EDBCF07
:10406000E9FF030EDBCFEAFF240EE926020EEA2267
:10407000EF5082141200E16EE552E7CFD9FF120033
:1040800015D8D89015501200040E145C000E155867
:104090001200D890E936EA36000EE926020EEA222E
:1040A0001200DECFE9FFDDCFEAFF1200DECF14F011
:0640B000DDCF15F0120047
:0A40B600F28ED08EF28C1200F19C05
:1040C000F292F2881200D8CFE4FFE0CFE4FFE46E72
:1040D0006CD800EE00F0140EE80403E3EECFE4FF2A
:1040E000FBD700EE14F00A0EE80403E3EECFE4FF82
:1040F000FBD7E652F2B481D89EB086D89EB28BD858
:10410000A1B290D8F2B2F2929EAA03D09E9ABDECD0
:104110001AF0E55200EE1DF00A0EE80403E3E5CFC5
:10412000EDFFFBD700EE13F0140EE80403E3E5CF38
:10413000EDFFFBD74FD8E550E5CFE0FFE5CFD8FF47
:10414000100033D800EE00F0140EE80403E3EECFC5
:10415000E4FFFBD700EE14F00A0EE80403E3EECF11
:10416000E4FFFBD7E652F2B448D89EB04DD89EB2D9
:1041700052D8A1B257D8F2B2F2929EAA03D09E9A18
:10418000BDEC1AF0E55200EE1DF00A0EE80403E360
:10419000E5CFEDFFFBD700EE13F0140EE80403E3C8
:1041A000E5CFEDFFFBD716D81100DACFE4FFE2CF61
:1041B000DAFFE9CFE4FFEACFE4FFF6CFE4FFF7CF81
:1041C000E4FFF5CFE4FFF3CFE4FFF4CFE4FFFACF51
:1041D000E4FF1200E5CFFAFFE5CFF4FFE5CFF3FFF0
:1041E000E5CFF5FFE5CFF7FFE5CFF6FFE5CFEAFF37
:1041F000E5CFE9FFE5CFDAFF12000DEC1EF0F294F7
:104200000FEC1EF062EF1EF029EC1EF09E9026ECE3
:104210001EF070EF1EF03FEC1EF09E923BEC1EF085
:104220007EEF1EF060EC1EF0A19258EC1EF08CEFB9
:024230001EF07E
:0E423200006A0EAE22EF21F00D6C0E1EE86A3F
:104240000E22001E09AE2AEF21F0086C091EE86A52
:104250000922001E12EC23F009BE3AEF21F000AE55
:10426000000C086C091EE86A0922046C051EE86A45
:104270000522000C00BE31EF21F00188FF0C006A1E
:104280000EAE4AEF21F00C6C0D1E0E1EE86A0D22D8
:104290000E22001E09AE54EF21F0076C081E091E05
:1042A000E86A08220922001EF5EC22F009BE67EF39
:1042B00021F000AE000C076C081E091EE86A0822F7
:1042C0000922036C041E051E04220522000C00BEF8
:1042D0005BEF21F00188FF0C006AE86A0EAE79EF0F
:1042E00021F00B6C0C1E0D1E0E1E0C220D220E2238
:1042F000001E09AE84EF21F0066C071E081E091E81
:10430000072208220922001ED1EC22F009BE9BEFF1
:1043100021F000AE000C066C071E081E091EE86A9C
:10432000072208220922026C031E041E051E032216
:1043300004220522000C00BE8BEF21F00188FF0C47
:1043400009C013F008C012F008500D02F4CF07F0B6
:10435000F3CF06F009500E02F4CF09F0F3CF08F0C6
:104360000D02F3500726F4500822E86A0922125081
:104370000E02F3500726F4500822E86A09220EAE16
:10438000C6EF21F01250085E1350095A13AE000C0C
:0A4390000D50085E0E50095A000C93
:06439A00D9CFE6FFE1CFE0
:1043A000D9FFE652AE50DF6E0001E751020A0BE082
:1043B000020A02E0010A21E12A0EDF5C1FE1010E80
:1043C000E86FEA6B17D0340EDF5C02E1020E10D00A
:1043D000350EDF5C02E1030E0BD0230EDF5C02E141
:1043E000E76B05D02A0EDF5C05E1010EE76F040ED6
:1043F000E86F04D0020EE76F01D0E76BE552E5529B
:10440000E7CFD9FF120012000001E80532E1CE0E1D
:10441000E66E3B0EE66EE66AE66A54EC15F0E5528F
:10442000E552E552E5520001806B0001EC510001BC
:10443000805D15E28051EA6A810FE96E000EEA2282
:10444000EFCF14F0156A166A176A14C0E6FF1BD87E
:10445000030E8003F3500ED80001802BE6D7E7C08F
:1044600014F0156A166A176AE7C0E6FF0CD80F0E3B
:1044700001D81200E66EE66A06EC15F0186E060E1C
:10448000E15E1850120015C0E6FF16C0E6FF17C027
:04449000E6FF120031
:0C4494001E0EF66E000EF76E000EF86EA5
:1044A0000F010900F550666F0900F550676F03E1D1
:1044B000666701D03DD00900F550616F0900F550E5
:1044C000626F0900F550636F09000900F550E96E4D
:1044D0000900F550EA6E090009000900F550646F03
:1044E0000900F550656F09000900F6CF68FFF7CFA6
:1044F00069FFF8CF6AFF61CFF6FF62CFF7FF63CFA6
:10450000F8FF0F01645302E1655307E00900F5501D
:10451000EE6E6407F8E26507F9D768CFF6FF69CF5A
:10452000F7FF6ACFF8FF0F016607000E675BBFD782
:02453000120077
:0E45320006500B02F3CF02F0F4CF03F00C02A0
:10454000F3500326000EF420046E06500D02F350C3
:104550000426000EF420056E06500E02F3500526C8
:1045600007500B02F3500326F4500422000E0522DC
:1045700007500C02F3500426F450052207500D0298
:10458000F350052608500B02F3500426F450052280
:1045900008500C02F350052609500B02F350052673
:0245A000120007
:0E45A200056A046A036A026A200EE76ED8906A
:1045B000063607360836093602360336043605361F
:1045C0000B50025C0C5003580D5004580E50055807
:1045D00009E30B50025E0C50035A0D50045A0E5062
:0A45E000055A062AE72EE4D7120060
:0645EA00056A046A036A81
:1045F000180EE76ED89007360836093603360436AB
:1046000005360C50035C0D5004580E50055807E356
:104610000C50035E0D50045A0E50055A072AE72E1F
:04462000EAD71200C3
:0C462400056A046A100EE76ED890083694
:104630000936043605360D50045C0E50055805E366
:104640000D50045E0E50055A082AE72EF0D71200CE
:10465000800EF36E00EE00F00F0E01D81200EA603B
:1046600002D0EE6AFCD7F350E9601200EE6AFCD784
:104670001EEE00F02EEE00F0F86A019C4AEC22F0EB
:0C46800003EC00F043EC00F0FBD712004C
:04468C00000000002A
:10469000000000000000000000000000000000001A
:0C46A0000000000001000100010001000A
:0446AC00000000000A
:0F46B000000000050500000000000000000000F1
:0146BF0003F7
:1046C00000040005000600010002000400080000CC
:1046D00000000000000000000000000000010001D8
:1046E00000000000000100010001000100000000C6
:1046F00000010000000000010000000000000000B8
:1047000000000001000100000001000000000001A5
:104710000001000000000000000100000000000196
:104720000000000000000001000000000000000088
:104730000000000000000000000100010001000175
:104740000000000000000000000000000000000069
:104750000000000000000001000000000001000156
:0B476000000100010001000100010049
:05476B0001020408102A
:104770002040800000000000000000000000000059
:0F47800000000000000600000004000000070019
:01478F000227
:104790000004000200040001000400010004000104
:1047A0000100000000000000000000000000000008
:1047B00000000000000000000000010000010000F7
:1047C0000000000000000001003C0000005A000052
:1047D000001400000028000000000001000100009B
:0147E00000D8
:0F47E10000000000000000001010101010101059
:1047F0001018181818181818181C1C1C1C1C1C1C25
:104800001C1E1E1E1E1E1E1E1E1F1F1F1F1F1F1FC3
:104810001F00000000000000000000000000000079
:104820000000000000000000000000000000000088
:104830000000000000000000000000000000000078
:02484000000076
:0E484200000000000000000000000000000068
:104850000000000000000000000000000000000058
:10486000000010204080010204080102040810200A
:02487000408086
:020000040030CA
:0100010002FC
:0100020003FA
:010003001EDE
:010005008179
:010006008178
:010008000FE8
:01000900C036
:01000A000FE6
:01000B00E014
:01000C000FE4
:01000D0040B2
:00000001FF
